{
  "contractName": "StateMachine",
  "abi": [
    {
      "constant": true,
      "inputs": [
        {
          "name": "_system",
          "type": "StateMachine.System storage"
        },
        {
          "name": "_state_id",
          "type": "uint256"
        }
      ],
      "name": "total_in_state",
      "outputs": [
        {
          "name": "_total_count",
          "type": "uint256"
        }
      ],
      "payable": false,
      "stateMutability": "view",
      "type": "function"
    },
    {
      "constant": true,
      "inputs": [
        {
          "name": "_system",
          "type": "StateMachine.System storage"
        }
      ],
      "name": "total",
      "outputs": [
        {
          "name": "_global_count",
          "type": "uint256"
        }
      ],
      "payable": false,
      "stateMutability": "view",
      "type": "function"
    },
    {
      "constant": true,
      "inputs": [
        {
          "name": "_system",
          "type": "StateMachine.System storage"
        }
      ],
      "name": "get_first_in_global",
      "outputs": [
        {
          "name": "_item",
          "type": "bytes32"
        }
      ],
      "payable": false,
      "stateMutability": "view",
      "type": "function"
    },
    {
      "constant": true,
      "inputs": [
        {
          "name": "_system",
          "type": "StateMachine.System storage"
        }
      ],
      "name": "get_last_in_global",
      "outputs": [
        {
          "name": "_item",
          "type": "bytes32"
        }
      ],
      "payable": false,
      "stateMutability": "view",
      "type": "function"
    },
    {
      "constant": true,
      "inputs": [
        {
          "name": "_system",
          "type": "StateMachine.System storage"
        },
        {
          "name": "_current_item",
          "type": "bytes32"
        }
      ],
      "name": "get_next_from_in_global",
      "outputs": [
        {
          "name": "_item",
          "type": "bytes32"
        }
      ],
      "payable": false,
      "stateMutability": "view",
      "type": "function"
    },
    {
      "constant": true,
      "inputs": [
        {
          "name": "_system",
          "type": "StateMachine.System storage"
        },
        {
          "name": "_current_item",
          "type": "bytes32"
        }
      ],
      "name": "get_previous_from_in_global",
      "outputs": [
        {
          "name": "_item",
          "type": "bytes32"
        }
      ],
      "payable": false,
      "stateMutability": "view",
      "type": "function"
    },
    {
      "constant": true,
      "inputs": [
        {
          "name": "_system",
          "type": "StateMachine.System storage"
        },
        {
          "name": "_state_id",
          "type": "uint256"
        }
      ],
      "name": "get_first_in_state",
      "outputs": [
        {
          "name": "_item",
          "type": "bytes32"
        }
      ],
      "payable": false,
      "stateMutability": "view",
      "type": "function"
    },
    {
      "constant": true,
      "inputs": [
        {
          "name": "_system",
          "type": "StateMachine.System storage"
        },
        {
          "name": "_state_id",
          "type": "uint256"
        }
      ],
      "name": "get_last_in_state",
      "outputs": [
        {
          "name": "_item",
          "type": "bytes32"
        }
      ],
      "payable": false,
      "stateMutability": "view",
      "type": "function"
    },
    {
      "constant": true,
      "inputs": [
        {
          "name": "_system",
          "type": "StateMachine.System storage"
        },
        {
          "name": "_state_id",
          "type": "uint256"
        },
        {
          "name": "_current_item",
          "type": "bytes32"
        }
      ],
      "name": "get_next_from_in_state",
      "outputs": [
        {
          "name": "_item",
          "type": "bytes32"
        }
      ],
      "payable": false,
      "stateMutability": "view",
      "type": "function"
    },
    {
      "constant": true,
      "inputs": [
        {
          "name": "_system",
          "type": "StateMachine.System storage"
        },
        {
          "name": "_state_id",
          "type": "uint256"
        },
        {
          "name": "_current_item",
          "type": "bytes32"
        }
      ],
      "name": "get_previous_from_in_state",
      "outputs": [
        {
          "name": "_item",
          "type": "bytes32"
        }
      ],
      "payable": false,
      "stateMutability": "view",
      "type": "function"
    },
    {
      "constant": true,
      "inputs": [
        {
          "name": "_system",
          "type": "StateMachine.System storage"
        },
        {
          "name": "_role_id",
          "type": "uint256"
        },
        {
          "name": "_from_state",
          "type": "uint256"
        },
        {
          "name": "_to_state",
          "type": "uint256"
        }
      ],
      "name": "check_role_access",
      "outputs": [
        {
          "name": "_yes",
          "type": "bool"
        }
      ],
      "payable": false,
      "stateMutability": "view",
      "type": "function"
    }
  ],
  "bytecode": "0x6060604052341561000f57600080fd5b610a8b8061001e6000396000f3006060604052600436106100af576000357c0100000000000000000000000000000000000000000000000000000000900463ffffffff16806343fb96ca146100b457806355e67ea4146100ff57806359b6d12b1461013c5780636946cca91461017057806381e4d3e51461019c578063ae139b22146101dd578063ae89b0e614610227578063b59a7bb814610271578063d4ce243d146102a6578063d9b08964146102e3578063e35ed51314610317575b600080fd5b6100e56004808035906020019091908035906020019091908035906020019091908035906020019091905050610358565b604051808215151515815260200191505060405180910390f35b61011e60048080359060200190919080359060200190919050506103a9565b60405180826000191660001916815260200191505060405180910390f35b6101526004808035906020019091905050610457565b60405180826000191660001916815260200191505060405180910390f35b61018660048080359060200190919050506104f3565b6040518082815260200191505060405180910390f35b6101bf60048080359060200190919080356000191690602001909190505061058f565b60405180826000191660001916815260200191505060405180910390f35b61020960048080359060200190919080359060200190919080356000191690602001909190505061063c565b60405180826000191660001916815260200191505060405180910390f35b6102536004808035906020019091908035906020019091908035600019169060200190919050506106fb565b60405180826000191660001916815260200191505060405180910390f35b61029060048080359060200190919080359060200190919050506107ba565b6040518082815260200191505060405180910390f35b6102c56004808035906020019091908035906020019091905050610868565b60405180826000191660001916815260200191505060405180910390f35b6102f96004808035906020019091905050610916565b60405180826000191660001916815260200191505060405180910390f35b61033a6004808035906020019091908035600019169060200190919050506109b2565b60405180826000191660001916815260200191505060405180910390f35b60008460020160008581526020019081526020016000206000848152602001908152602001600020600083815260200190815260200160002060009054906101000a900460ff169050949350505050565b600082600301600083815260200190815260200160002073__DoublyLinkedList______________________6356717c7990916000604051602001526040518263ffffffff167c01000000000000000000000000000000000000000000000000000000000281526004018082815260200191505060206040518083038186803b151561043457600080fd5b6102c65a03f4151561044557600080fd5b50505060405180519050905092915050565b60008160060173__DoublyLinkedList______________________6356717c7990916000604051602001526040518263ffffffff167c01000000000000000000000000000000000000000000000000000000000281526004018082815260200191505060206040518083038186803b15156104d157600080fd5b6102c65a03f415156104e257600080fd5b505050604051805190509050919050565b60008160060173__DoublyLinkedList______________________630f77955290916000604051602001526040518263ffffffff167c01000000000000000000000000000000000000000000000000000000000281526004018082815260200191505060206040518083038186803b151561056d57600080fd5b6102c65a03f4151561057e57600080fd5b505050604051805190509050919050565b60008260060173__DoublyLinkedList______________________63cf06689d9091846000604051602001526040518363ffffffff167c01000000000000000000000000000000000000000000000000000000000281526004018083815260200182600019166000191681526020019250505060206040518083038186803b151561061957600080fd5b6102c65a03f4151561062a57600080fd5b50505060405180519050905092915050565b600083600301600084815260200190815260200160002073__DoublyLinkedList______________________632a1441789091846000604051602001526040518363ffffffff167c01000000000000000000000000000000000000000000000000000000000281526004018083815260200182600019166000191681526020019250505060206040518083038186803b15156106d757600080fd5b6102c65a03f415156106e857600080fd5b5050506040518051905090509392505050565b600083600301600084815260200190815260200160002073__DoublyLinkedList______________________63cf06689d9091846000604051602001526040518363ffffffff167c01000000000000000000000000000000000000000000000000000000000281526004018083815260200182600019166000191681526020019250505060206040518083038186803b151561079657600080fd5b6102c65a03f415156107a757600080fd5b5050506040518051905090509392505050565b600082600301600083815260200190815260200160002073__DoublyLinkedList______________________630f77955290916000604051602001526040518263ffffffff167c01000000000000000000000000000000000000000000000000000000000281526004018082815260200191505060206040518083038186803b151561084557600080fd5b6102c65a03f4151561085657600080fd5b50505060405180519050905092915050565b600082600301600083815260200190815260200160002073__DoublyLinkedList______________________632553148290916000604051602001526040518263ffffffff167c01000000000000000000000000000000000000000000000000000000000281526004018082815260200191505060206040518083038186803b15156108f357600080fd5b6102c65a03f4151561090457600080fd5b50505060405180519050905092915050565b60008160060173__DoublyLinkedList______________________632553148290916000604051602001526040518263ffffffff167c01000000000000000000000000000000000000000000000000000000000281526004018082815260200191505060206040518083038186803b151561099057600080fd5b6102c65a03f415156109a157600080fd5b505050604051805190509050919050565b60008260060173__DoublyLinkedList______________________632a1441789091846000604051602001526040518363ffffffff167c01000000000000000000000000000000000000000000000000000000000281526004018083815260200182600019166000191681526020019250505060206040518083038186803b1515610a3c57600080fd5b6102c65a03f41515610a4d57600080fd5b505050604051805190509050929150505600a165627a7a72305820e5df817f62314c212024cf0b2f666abb382175ec1ca5f227106811ea8bba388a0029",
  "source": "pragma solidity ^0.4.19;\n\nimport \"@digix/solidity-collections/contracts/lib/DoublyLinkedList.sol\";\n\nlibrary StateMachine {\n\n  using DoublyLinkedList for DoublyLinkedList.Bytes;\n\n  struct System {\n    mapping(bytes32 => Item) items;\n    mapping(address => uint256) to_role;\n    mapping(uint256 => mapping (uint256 => mapping(uint256 => bool))) access_control;\n    mapping(uint256 => DoublyLinkedList.Bytes) lists_by_state;\n    mapping(uint256 => bytes32) state_ids_to_name;\n    mapping(uint256 => bytes32) role_ids_to_name;\n    DoublyLinkedList.Bytes global_list;\n    bytes32 seed;\n  }\n\n  struct Item {\n    uint256 state;\n  }\n\n  function set_state_name(System storage _system, uint256 _state_id, bytes32 _state_name)\n           internal\n           returns (bool _success)\n  {\n    _system.state_ids_to_name[_state_id] = _state_name;\n    _success = true;\n  }\n\n  function get_state_name(System storage _system, uint256 _state_id)\n           internal\n           constant\n           returns (bytes32 _state_name)\n  {\n    if (_state_id == 0) {\n      _state_name = bytes32(\"none\");\n    } else {\n      _state_name = _system.state_ids_to_name[_state_id];\n    }\n  }\n\n  function get_item_state_id(System storage _system, bytes32 _item)\n           internal\n           constant\n           returns (uint256 _state_id)\n  {\n    _state_id = _system.items[_item].state;\n  }\n\n  function get_item_state_name(System storage _system, bytes32 _item)\n           internal\n           constant\n           returns (bytes32 _state_name)\n  {\n    _state_name = get_state_name(_system, get_item_state_id(_system, _item));\n  }\n\n  function set_role_name(System storage _system, uint256 _role_id, bytes32 _role_name)\n           internal\n           returns (bool _success)\n  {\n    _system.role_ids_to_name[_role_id] = _role_name;\n    _success = true;\n  }\n\n  function get_role_name(System storage _system, uint256 _role_id)\n           internal\n           constant\n           returns (bytes32 _role_name)\n  {\n    if (_role_id == 0) {\n      _role_name = bytes32(\"none\");\n    } else {\n      _role_name = _system.role_ids_to_name[_role_id];\n    }\n  }\n\n  function get_entity_role_id(System storage _system, address _entity)\n           internal\n           constant\n           returns (uint256 _role_id)\n  {\n    _role_id = _system.to_role[_entity];\n  }\n\n  function set_role(System storage _system, address _entity, uint256 _role_id)\n           internal\n           returns (bool _success)\n  {\n    _system.to_role[_entity] = _role_id;\n    _success = true;\n  }\n\n  function unset_role(System storage _system, address _entity)\n           internal\n           returns (bool _success)\n  {\n    if (_system.to_role[_entity] == 0) {\n      _success = false;\n    } else {\n      delete _system.to_role[_entity];\n      _success = true;\n    }\n  }\n\n  function grant_access(System storage _system, uint256 _by_role, uint256 _from_state, uint256 _to_state)\n           internal\n           returns (bool _success)\n  {\n    if (_system.access_control[_by_role][_from_state][_to_state] == false) {\n      _system.access_control[_by_role][_from_state][_to_state] = true;\n      _success = true;\n    } else {\n      _success = false;\n    }\n  }\n\n  function revoke_access(System storage _system, uint256 _by_role, uint256 _from_state, uint256 _to_state)\n           internal\n           returns (bool _success)\n  {\n    if(_system.access_control[_by_role][_from_state][_to_state] == true) {\n      _system.access_control[_by_role][_from_state][_to_state] = false;\n      _success = true;\n    } else {\n      _success = false;\n    }\n  }\n\n  function init(System storage _system)\n           internal\n           returns (bool _success)\n  {\n    require(_system.seed == bytes32(0x0));\n    _system.seed = bytes32(address(this));\n    _success = true;\n  }\n\n  function get_new_identifier(System storage _system)\n           internal\n           returns (bytes32 _new_id)\n  {\n    require(_system.seed != bytes32(0x0));\n    _system.seed = keccak256(_system.seed, now);\n    _new_id = _system.seed;\n  }\n\n  function create_item(System storage _system, uint256 _by_role)\n           internal\n           returns (bool _success, bytes32 _item)\n  {\n    require(_system.seed != bytes32(0x0)); // system must be init-ed first, and hence seed must already have value\n    if (_system.access_control[_by_role][0][1] == true) {\n      _item = get_new_identifier(_system);\n      _system.items[_item].state = 1;\n      require(_system.global_list.append(_item));\n      require(_system.lists_by_state[1].append(_item));\n      _success = true;\n    } else {\n      _success = false;\n      _item = bytes32(0x0);\n    }\n  }\n\n  function change_item_state(System storage _system, uint256 _by_role, bytes32 _item, uint256 _to_state)\n           internal\n           returns (bool _success, uint256 _from_state, uint256 _new_state)\n  {\n\n    _from_state = _system.items[_item].state;\n\n    bool _append_success;\n    bool _remove_success;\n    _new_state = _from_state;\n    _success = false;\n\n    if (_system.access_control[0][_from_state][_to_state] == true) {\n      _by_role = 0;\n    }\n\n    if (_system.access_control[_by_role][_from_state][_to_state] == true) {\n      _system.items[_item].state = _to_state;\n      _append_success = _system.lists_by_state[_to_state].append(_item);\n      _remove_success = _system.lists_by_state[_from_state].remove_item(_item);\n      _new_state = _system.items[_item].state;\n      _success = (_append_success && _remove_success);\n    }\n  }\n\n  function total_in_state(System storage _system, uint256 _state_id)\n           public\n           constant\n           returns (uint256 _total_count)\n  {\n    _total_count = _system.lists_by_state[_state_id].total();\n  }\n\n  function total(System storage _system)\n           public\n           constant\n           returns (uint256 _global_count)\n  {\n    _global_count = _system.global_list.total();\n  }\n\n  function get_first_in_global(System storage _system)\n           public\n           constant\n           returns (bytes32 _item)\n  {\n    _item = _system.global_list.start_item();\n  }\n\n  function get_last_in_global(System storage _system)\n           public\n           constant\n           returns (bytes32 _item)\n  {\n    _item = _system.global_list.end_item();\n  }\n\n  function get_next_from_in_global(System storage _system, bytes32 _current_item)\n           public\n           constant\n           returns (bytes32 _item)\n  {\n    _item = _system.global_list.next_item(_current_item);\n  }\n\n  function get_previous_from_in_global(System storage _system, bytes32 _current_item)\n           public\n           constant\n           returns (bytes32 _item)\n  {\n    _item = _system.global_list.previous_item(_current_item);\n  }\n\n  function get_first_in_state(System storage _system, uint256 _state_id)\n           public\n           constant\n           returns (bytes32 _item)\n  {\n    _item = _system.lists_by_state[_state_id].start_item();\n  }\n\n  function get_last_in_state(System storage _system, uint256 _state_id)\n           public\n           constant\n           returns (bytes32 _item)\n  {\n    _item = _system.lists_by_state[_state_id].end_item();\n  }\n\n  function get_next_from_in_state(System storage _system, uint256 _state_id, bytes32 _current_item)\n           public\n           constant\n           returns (bytes32 _item)\n  {\n    _item = _system.lists_by_state[_state_id].next_item(_current_item);\n  }\n\n  function get_previous_from_in_state(System storage _system, uint256 _state_id, bytes32 _current_item)\n           public\n           constant\n           returns (bytes32 _item)\n  {\n    _item = _system.lists_by_state[_state_id].previous_item(_current_item);\n  }\n\n  function check_role_access(System storage _system, uint256 _role_id, uint256 _from_state, uint256 _to_state)\n           public\n           constant\n           returns (bool _yes)\n  {\n    _yes = _system.access_control[_role_id][_from_state][_to_state];\n  }\n}\n",
  "sourcePath": "/home/rohit/Develop/solidity-statemachine-library/contracts/lib/StateMachine.sol",
  "compiler": {
    "name": "solc",
    "version": "0.4.19+commit.c4cbbb05.Emscripten.clang"
  },
  "schemaVersion": "1.0.1",
  "updatedAt": "2018-03-07T04:28:37.741Z"
}