{
  "contractName": "TestStateMachine",
  "abi": [
    {
      "constant": false,
      "inputs": [],
      "name": "setup_system_for_testing",
      "outputs": [],
      "payable": false,
      "stateMutability": "nonpayable",
      "type": "function"
    },
    {
      "constant": true,
      "inputs": [
        {
          "name": "_by_role",
          "type": "uint256"
        },
        {
          "name": "_from_state",
          "type": "uint256"
        },
        {
          "name": "_to_state",
          "type": "uint256"
        }
      ],
      "name": "test_mock_get_access",
      "outputs": [
        {
          "name": "_access",
          "type": "bool"
        }
      ],
      "payable": false,
      "stateMutability": "view",
      "type": "function"
    },
    {
      "constant": true,
      "inputs": [
        {
          "name": "_state_id",
          "type": "uint256"
        }
      ],
      "name": "test_mock_get_lists_by_states_latest_item",
      "outputs": [
        {
          "name": "_item",
          "type": "bytes32"
        }
      ],
      "payable": false,
      "stateMutability": "view",
      "type": "function"
    },
    {
      "constant": true,
      "inputs": [
        {
          "name": "_state_id",
          "type": "uint256"
        },
        {
          "name": "_item",
          "type": "bytes32"
        }
      ],
      "name": "test_mock_check_item_exists_in_list_by_states",
      "outputs": [
        {
          "name": "_exist",
          "type": "bool"
        }
      ],
      "payable": false,
      "stateMutability": "view",
      "type": "function"
    },
    {
      "constant": true,
      "inputs": [
        {
          "name": "_state_id",
          "type": "uint256"
        }
      ],
      "name": "test_mock_check_list_by_states_length",
      "outputs": [
        {
          "name": "_length",
          "type": "uint256"
        }
      ],
      "payable": false,
      "stateMutability": "view",
      "type": "function"
    },
    {
      "constant": true,
      "inputs": [
        {
          "name": "_item",
          "type": "bytes32"
        }
      ],
      "name": "test_mock_check_item_exists_in_global_list",
      "outputs": [
        {
          "name": "_exist",
          "type": "bool"
        }
      ],
      "payable": false,
      "stateMutability": "view",
      "type": "function"
    },
    {
      "constant": true,
      "inputs": [
        {
          "name": "_item",
          "type": "bytes32"
        }
      ],
      "name": "test_mock_get_item_state",
      "outputs": [
        {
          "name": "_state",
          "type": "uint256"
        }
      ],
      "payable": false,
      "stateMutability": "view",
      "type": "function"
    },
    {
      "constant": true,
      "inputs": [
        {
          "name": "_state_id",
          "type": "uint256"
        }
      ],
      "name": "test_mock_get_state_name",
      "outputs": [
        {
          "name": "_state_name",
          "type": "bytes32"
        }
      ],
      "payable": false,
      "stateMutability": "view",
      "type": "function"
    },
    {
      "constant": true,
      "inputs": [
        {
          "name": "_role_id",
          "type": "uint256"
        }
      ],
      "name": "test_mock_get_role_name",
      "outputs": [
        {
          "name": "_role_name",
          "type": "bytes32"
        }
      ],
      "payable": false,
      "stateMutability": "view",
      "type": "function"
    },
    {
      "constant": false,
      "inputs": [
        {
          "name": "_state_id",
          "type": "uint256"
        },
        {
          "name": "_state_name",
          "type": "bytes32"
        }
      ],
      "name": "test_set_state_name",
      "outputs": [
        {
          "name": "_success",
          "type": "bool"
        }
      ],
      "payable": false,
      "stateMutability": "nonpayable",
      "type": "function"
    },
    {
      "constant": true,
      "inputs": [
        {
          "name": "_state_id",
          "type": "uint256"
        }
      ],
      "name": "test_get_state_name",
      "outputs": [
        {
          "name": "_state_name",
          "type": "bytes32"
        }
      ],
      "payable": false,
      "stateMutability": "view",
      "type": "function"
    },
    {
      "constant": true,
      "inputs": [
        {
          "name": "_item",
          "type": "bytes32"
        }
      ],
      "name": "test_get_item_state_id",
      "outputs": [
        {
          "name": "_state_id",
          "type": "uint256"
        }
      ],
      "payable": false,
      "stateMutability": "view",
      "type": "function"
    },
    {
      "constant": true,
      "inputs": [
        {
          "name": "_item",
          "type": "bytes32"
        }
      ],
      "name": "test_get_item_state_name",
      "outputs": [
        {
          "name": "_state_name",
          "type": "bytes32"
        }
      ],
      "payable": false,
      "stateMutability": "view",
      "type": "function"
    },
    {
      "constant": false,
      "inputs": [
        {
          "name": "_role_id",
          "type": "uint256"
        },
        {
          "name": "_role_name",
          "type": "bytes32"
        }
      ],
      "name": "test_set_role_name",
      "outputs": [
        {
          "name": "_success",
          "type": "bool"
        }
      ],
      "payable": false,
      "stateMutability": "nonpayable",
      "type": "function"
    },
    {
      "constant": true,
      "inputs": [
        {
          "name": "_role_id",
          "type": "uint256"
        }
      ],
      "name": "test_get_role_name",
      "outputs": [
        {
          "name": "_role_name",
          "type": "bytes32"
        }
      ],
      "payable": false,
      "stateMutability": "view",
      "type": "function"
    },
    {
      "constant": true,
      "inputs": [
        {
          "name": "_entity",
          "type": "address"
        }
      ],
      "name": "test_get_entity_role_id",
      "outputs": [
        {
          "name": "_role_id",
          "type": "uint256"
        }
      ],
      "payable": false,
      "stateMutability": "view",
      "type": "function"
    },
    {
      "constant": false,
      "inputs": [
        {
          "name": "_entity",
          "type": "address"
        },
        {
          "name": "_role_id",
          "type": "uint256"
        }
      ],
      "name": "test_set_role",
      "outputs": [
        {
          "name": "_success",
          "type": "bool"
        }
      ],
      "payable": false,
      "stateMutability": "nonpayable",
      "type": "function"
    },
    {
      "constant": false,
      "inputs": [
        {
          "name": "_entity",
          "type": "address"
        }
      ],
      "name": "test_unset_role",
      "outputs": [
        {
          "name": "_success",
          "type": "bool"
        }
      ],
      "payable": false,
      "stateMutability": "nonpayable",
      "type": "function"
    },
    {
      "constant": false,
      "inputs": [
        {
          "name": "_by_role",
          "type": "uint256"
        },
        {
          "name": "_from_state",
          "type": "uint256"
        },
        {
          "name": "_to_state",
          "type": "uint256"
        }
      ],
      "name": "test_grant_access",
      "outputs": [
        {
          "name": "_success",
          "type": "bool"
        }
      ],
      "payable": false,
      "stateMutability": "nonpayable",
      "type": "function"
    },
    {
      "constant": false,
      "inputs": [
        {
          "name": "_by_role",
          "type": "uint256"
        },
        {
          "name": "_from_state",
          "type": "uint256"
        },
        {
          "name": "_to_state",
          "type": "uint256"
        }
      ],
      "name": "test_revoke_access",
      "outputs": [
        {
          "name": "_success",
          "type": "bool"
        }
      ],
      "payable": false,
      "stateMutability": "nonpayable",
      "type": "function"
    },
    {
      "constant": false,
      "inputs": [
        {
          "name": "_by_role",
          "type": "uint256"
        }
      ],
      "name": "test_create_item",
      "outputs": [
        {
          "name": "_success",
          "type": "bool"
        },
        {
          "name": "_item",
          "type": "bytes32"
        }
      ],
      "payable": false,
      "stateMutability": "nonpayable",
      "type": "function"
    },
    {
      "constant": false,
      "inputs": [
        {
          "name": "_by_role",
          "type": "uint256"
        },
        {
          "name": "_item",
          "type": "bytes32"
        },
        {
          "name": "_to_state",
          "type": "uint256"
        }
      ],
      "name": "test_change_item_state",
      "outputs": [
        {
          "name": "_success",
          "type": "bool"
        },
        {
          "name": "_from_state",
          "type": "uint256"
        },
        {
          "name": "_new_state",
          "type": "uint256"
        }
      ],
      "payable": false,
      "stateMutability": "nonpayable",
      "type": "function"
    },
    {
      "constant": true,
      "inputs": [
        {
          "name": "_state_id",
          "type": "uint256"
        }
      ],
      "name": "test_total_in_state",
      "outputs": [
        {
          "name": "_total_count",
          "type": "uint256"
        }
      ],
      "payable": false,
      "stateMutability": "view",
      "type": "function"
    },
    {
      "constant": true,
      "inputs": [],
      "name": "test_total",
      "outputs": [
        {
          "name": "_global_count",
          "type": "uint256"
        }
      ],
      "payable": false,
      "stateMutability": "view",
      "type": "function"
    },
    {
      "constant": true,
      "inputs": [],
      "name": "test_get_first_in_global",
      "outputs": [
        {
          "name": "_item",
          "type": "bytes32"
        }
      ],
      "payable": false,
      "stateMutability": "view",
      "type": "function"
    },
    {
      "constant": true,
      "inputs": [],
      "name": "test_get_last_in_global",
      "outputs": [
        {
          "name": "_item",
          "type": "bytes32"
        }
      ],
      "payable": false,
      "stateMutability": "view",
      "type": "function"
    },
    {
      "constant": true,
      "inputs": [
        {
          "name": "_input_item",
          "type": "bytes32"
        }
      ],
      "name": "test_get_next_from_in_global",
      "outputs": [
        {
          "name": "_item",
          "type": "bytes32"
        }
      ],
      "payable": false,
      "stateMutability": "view",
      "type": "function"
    },
    {
      "constant": true,
      "inputs": [
        {
          "name": "_input_item",
          "type": "bytes32"
        }
      ],
      "name": "test_get_previous_from_in_global",
      "outputs": [
        {
          "name": "_item",
          "type": "bytes32"
        }
      ],
      "payable": false,
      "stateMutability": "view",
      "type": "function"
    },
    {
      "constant": true,
      "inputs": [
        {
          "name": "_state_id",
          "type": "uint256"
        }
      ],
      "name": "test_get_first_in_state",
      "outputs": [
        {
          "name": "_item",
          "type": "bytes32"
        }
      ],
      "payable": false,
      "stateMutability": "view",
      "type": "function"
    },
    {
      "constant": true,
      "inputs": [
        {
          "name": "_state_id",
          "type": "uint256"
        }
      ],
      "name": "test_get_last_in_state",
      "outputs": [
        {
          "name": "_item",
          "type": "bytes32"
        }
      ],
      "payable": false,
      "stateMutability": "view",
      "type": "function"
    },
    {
      "constant": true,
      "inputs": [
        {
          "name": "_state_id",
          "type": "uint256"
        },
        {
          "name": "_input_item",
          "type": "bytes32"
        }
      ],
      "name": "test_get_next_from_in_state",
      "outputs": [
        {
          "name": "_item",
          "type": "bytes32"
        }
      ],
      "payable": false,
      "stateMutability": "view",
      "type": "function"
    },
    {
      "constant": true,
      "inputs": [
        {
          "name": "_state_id",
          "type": "uint256"
        },
        {
          "name": "_input_item",
          "type": "bytes32"
        }
      ],
      "name": "test_get_previous_from_in_state",
      "outputs": [
        {
          "name": "_item",
          "type": "bytes32"
        }
      ],
      "payable": false,
      "stateMutability": "view",
      "type": "function"
    },
    {
      "constant": true,
      "inputs": [
        {
          "name": "_role_id",
          "type": "uint256"
        },
        {
          "name": "_from_state",
          "type": "uint256"
        },
        {
          "name": "_to_state",
          "type": "uint256"
        }
      ],
      "name": "test_check_role_access",
      "outputs": [
        {
          "name": "_yes",
          "type": "bool"
        }
      ],
      "payable": false,
      "stateMutability": "view",
      "type": "function"
    }
  ],
  "bytecode": "0x6060604052341561000f57600080fd5b6125f58061001e6000396000f3006060604052600436106101a0576000357c0100000000000000000000000000000000000000000000000000000000900463ffffffff1680626dbfb0146101a557806306a3220e146101e05780630de58a3114610209578063150980271461024857806324423ec51461027f57806328604b3a146102c75780632faa6e4014610313578063309f86151461035d57806331a0dd7a1461038e5780634a4c5d25146103cd5780634e6c6d80146103e2578063534e152e1461042a57806354bd9119146104695780635bbbe199146104b657806361bd835d14610502578063747bd3461461054557806378b6753614610576578063841501cf146105c357806388a8655f146106025780638ec1a0011461064f578063924eb8e514610697578063943dcc56146106ce578063ab70a3561461070d578063bc84cf5e1461075a578063c009521414610799578063c412ce05146107ea578063c75318eb1461082d578063c9d749e01461086c578063d0c7df28146108a7578063db0efbf5146108ea578063ddadfd7514610937578063f7f0dfe414610996578063f8af1038146109d5575b600080fd5b34156101b057600080fd5b6101ca600480803560001916906020019091905050610a2f565b6040518082815260200191505060405180910390f35b34156101eb57600080fd5b6101f3610a4c565b6040518082815260200191505060405180910390f35b341561021457600080fd5b61022a6004808035906020019091905050610ae3565b60405180826000191660001916815260200191505060405180910390f35b341561025357600080fd5b6102696004808035906020019091905050610b84565b6040518082815260200191505060405180910390f35b341561028a57600080fd5b6102ad600480803590602001909190803560001916906020019091905050610c25565b604051808215151515815260200191505060405180910390f35b34156102d257600080fd5b6102f5600480803590602001909190803560001916906020019091905050610ce7565b60405180826000191660001916815260200191505060405180910390f35b341561031e57600080fd5b6103346004808035906020019091905050610d99565b604051808315151515815260200182600019166000191681526020019250505060405180910390f35b341561036857600080fd5b610370610dbd565b60405180826000191660001916815260200191505060405180910390f35b341561039957600080fd5b6103af6004808035906020019091905050610e54565b60405180826000191660001916815260200191505060405180910390f35b34156103d857600080fd5b6103e0610ef5565b005b34156103ed57600080fd5b6104106004808035906020019091908035600019169060200190919050506114d4565b604051808215151515815260200191505060405180910390f35b341561043557600080fd5b61044b60048080359060200190919050506114f4565b60405180826000191660001916815260200191505060405180910390f35b341561047457600080fd5b61049c6004808035906020019091908035906020019091908035906020019091905050611513565b604051808215151515815260200191505060405180910390f35b34156104c157600080fd5b6104e4600480803590602001909190803560001916906020019091905050611563565b60405180826000191660001916815260200191505060405180910390f35b341561050d57600080fd5b610527600480803560001916906020019091905050611615565b60405180826000191660001916815260200191505060405180910390f35b341561055057600080fd5b610558611632565b60405180826000191660001916815260200191505060405180910390f35b341561058157600080fd5b6105a960048080359060200190919080359060200190919080359060200190919050506116c9565b604051808215151515815260200191505060405180910390f35b34156105ce57600080fd5b6105e4600480803590602001909190505061177c565b60405180826000191660001916815260200191505060405180910390f35b341561060d57600080fd5b6106356004808035906020019091908035906020019091908035906020019091905050611799565b604051808215151515815260200191505060405180910390f35b341561065a57600080fd5b61067d6004808035906020019091908035600019169060200190919050506117bc565b604051808215151515815260200191505060405180910390f35b34156106a257600080fd5b6106b860048080359060200190919050506117dc565b6040518082815260200191505060405180910390f35b34156106d957600080fd5b6106ef6004808035906020019091905050611804565b60405180826000191660001916815260200191505060405180910390f35b341561071857600080fd5b6107406004808035906020019091908035906020019091908035906020019091905050611821565b604051808215151515815260200191505060405180910390f35b341561076557600080fd5b61077b6004808035906020019091905050611844565b60405180826000191660001916815260200191505060405180910390f35b34156107a457600080fd5b6107d0600480803573ffffffffffffffffffffffffffffffffffffffff1690602001909190505061191e565b604051808215151515815260200191505060405180910390f35b34156107f557600080fd5b61080f60048080356000191690602001909190505061193b565b60405180826000191660001916815260200191505060405180910390f35b341561083857600080fd5b61084e60048080359060200190919050506119e4565b60405180826000191660001916815260200191505060405180910390f35b341561087757600080fd5b610891600480803560001916906020019091905050611a03565b6040518082815260200191505060405180910390f35b34156108b257600080fd5b6108cc600480803560001916906020019091905050611a2d565b60405180826000191660001916815260200191505060405180910390f35b34156108f557600080fd5b610921600480803573ffffffffffffffffffffffffffffffffffffffff16906020019091905050611ad6565b6040518082815260200191505060405180910390f35b341561094257600080fd5b61096e600480803590602001909190803560001916906020019091908035906020019091905050611af3565b6040518084151515158152602001838152602001828152602001935050505060405180910390f35b34156109a157600080fd5b6109bb600480803560001916906020019091905050611b25565b604051808215151515815260200191505060405180910390f35b34156109e057600080fd5b610a15600480803573ffffffffffffffffffffffffffffffffffffffff16906020019091908035906020019091905050611bd5565b604051808215151515815260200191505060405180910390f35b6000610a45826000611bf590919063ffffffff16565b9050919050565b60008073__StateMachine__________________________636946cca990916000604051602001526040518263ffffffff167c01000000000000000000000000000000000000000000000000000000000281526004018082815260200191505060206040518083038186803b1515610ac357600080fd5b6102c65a03f41515610ad457600080fd5b50505060405180519050905090565b60008073__StateMachine__________________________63d4ce243d9091846000604051602001526040518363ffffffff167c0100000000000000000000000000000000000000000000000000000000028152600401808381526020018281526020019250505060206040518083038186803b1515610b6257600080fd5b6102c65a03f41515610b7357600080fd5b505050604051805190509050919050565b60008073__StateMachine__________________________63b59a7bb89091846000604051602001526040518363ffffffff167c0100000000000000000000000000000000000000000000000000000000028152600401808381526020018281526020019250505060206040518083038186803b1515610c0357600080fd5b6102c65a03f41515610c1457600080fd5b505050604051805190509050919050565b6000806000600301600085815260200190815260200160002073__DoublyLinkedList______________________630cf65c5d9091856000604051602001526040518363ffffffff167c01000000000000000000000000000000000000000000000000000000000281526004018083815260200182600019166000191681526020019250505060206040518083038186803b1515610cc257600080fd5b6102c65a03f41515610cd357600080fd5b505050604051805190501415905092915050565b60008073__StateMachine__________________________63ae139b22909185856000604051602001526040518463ffffffff167c0100000000000000000000000000000000000000000000000000000000028152600401808481526020018381526020018260001916600019168152602001935050505060206040518083038186803b1515610d7657600080fd5b6102c65a03f41515610d8757600080fd5b50505060405180519050905092915050565b600080610db0836000611c2090919063ffffffff16565b8092508193505050915091565b60008073__StateMachine__________________________6359b6d12b90916000604051602001526040518263ffffffff167c01000000000000000000000000000000000000000000000000000000000281526004018082815260200191505060206040518083038186803b1515610e3457600080fd5b6102c65a03f41515610e4557600080fd5b50505060405180519050905090565b60008073__StateMachine__________________________6355e67ea49091846000604051602001526040518363ffffffff167c0100000000000000000000000000000000000000000000000000000000028152600401808381526020018281526020019250505060206040518083038186803b1515610ed357600080fd5b6102c65a03f41515610ee457600080fd5b505050604051805190509050919050565b600080600060068201600080820160008082016000905560018201600090556002820160009055600582016000610f2c919061256e565b50505050600c8201600090555050610f446000611e4f565b507f6e616d655f6f665f73746174655f69645f313030000000000000000000000000600060040160006064815260200190815260200160002081600019169055507f6e616d655f6f665f73746174655f69645f31313000000000000000000000000060006004016000606e815260200190815260200160002081600019169055507f6e616d655f6f665f726f6c655f69645f353000000000000000000000000000006000600501600060328152602001908152602001600020816000191690555073e76ac07465f353ff8de7c8450c39e936c85fa28390506032600060010160008373ffffffffffffffffffffffffffffffffffffffff1673ffffffffffffffffffffffffffffffffffffffff1681526020019081526020016000208190555060016000600201600060328152602001908152602001600020600080815260200190815260200160002060006001815260200190815260200160002060006101000a81548160ff021916908315150217905550600160006002016000603281526020019081526020016000206000606481526020019081526020016000206000606e815260200190815260200160002060006101000a81548160ff021916908315150217905550600060030160006064815260200190815260200160002073__DoublyLinkedList______________________63582f30b490916000604051602001526040518263ffffffff167c010000000000000000000000000000000000000000000000000000000002815260040180828152602001807f746573745f6974656d5f6e616d6500000000000000000000000000000000000081525060200191505060206040518083038186803b15156111be57600080fd5b6102c65a03f415156111cf57600080fd5b5050506040518051905050600060030160006064815260200190815260200160002073__DoublyLinkedList______________________63582f30b490916000604051602001526040518263ffffffff167c010000000000000000000000000000000000000000000000000000000002815260040180828152602001807f746573745f6974656d5f6e616d655f320000000000000000000000000000000081525060200191505060206040518083038186803b151561128d57600080fd5b6102c65a03f4151561129e57600080fd5b5050506040518051905050600060060173__DoublyLinkedList______________________63582f30b490916000604051602001526040518263ffffffff167c010000000000000000000000000000000000000000000000000000000002815260040180828152602001807f746573745f6974656d5f6e616d6500000000000000000000000000000000000081525060200191505060206040518083038186803b151561134a57600080fd5b6102c65a03f4151561135b57600080fd5b5050506040518051905050600060060173__DoublyLinkedList______________________63582f30b490916000604051602001526040518263ffffffff167c010000000000000000000000000000000000000000000000000000000002815260040180828152602001807f746573745f6974656d5f6e616d655f320000000000000000000000000000000081525060200191505060206040518083038186803b151561140757600080fd5b6102c65a03f4151561141857600080fd5b505050604051805190505060206040519081016040528060648152506000800160007f746573745f6974656d5f6e616d650000000000000000000000000000000000006000191681526020019081526020016000206000820151816000015590505060206040519081016040528060648152506000800160007f746573745f6974656d5f6e616d655f32000000000000000000000000000000006000191681526020019081526020016000206000820151816000015590505050565b60006114ec83836000611e9d9092919063ffffffff16565b905092915050565b6000806005016000838152602001908152602001600020549050919050565b60008060020160008581526020019081526020016000206000848152602001908152602001600020600083815260200190815260200160002060009054906101000a900460ff1690509392505050565b60008073__StateMachine__________________________63ae89b0e6909185856000604051602001526040518463ffffffff167c0100000000000000000000000000000000000000000000000000000000028152600401808481526020018381526020018260001916600019168152602001935050505060206040518083038186803b15156115f257600080fd5b6102c65a03f4151561160357600080fd5b50505060405180519050905092915050565b600061162b826000611ec890919063ffffffff16565b9050919050565b60008073__StateMachine__________________________63d9b0896490916000604051602001526040518263ffffffff167c01000000000000000000000000000000000000000000000000000000000281526004018082815260200191505060206040518083038186803b15156116a957600080fd5b6102c65a03f415156116ba57600080fd5b50505060405180519050905090565b60008073__StateMachine__________________________6343fb96ca90918686866000604051602001526040518563ffffffff167c01000000000000000000000000000000000000000000000000000000000281526004018085815260200184815260200183815260200182815260200194505050505060206040518083038186803b151561175857600080fd5b6102c65a03f4151561176957600080fd5b5050506040518051905090509392505050565b6000611792826000611ee590919063ffffffff16565b9050919050565b60006117b38484846000611f36909392919063ffffffff16565b90509392505050565b60006117d483836000611fef9092919063ffffffff16565b905092915050565b6000806003016000838152602001908152602001600020600001600501805490509050919050565b600061181a82600061201a90919063ffffffff16565b9050919050565b600061183b848484600061206b909392919063ffffffff16565b90509392505050565b600080600060030160008481526020019081526020016000206000016005018054905090506000600301600084815260200190815260200160002073__DoublyLinkedList______________________63fa8a04749091836000604051602001526040518363ffffffff167c0100000000000000000000000000000000000000000000000000000000028152600401808381526020018281526020019250505060206040518083038186803b15156118fb57600080fd5b6102c65a03f4151561190c57600080fd5b50505060405180519050915050919050565b600061193482600061212390919063ffffffff16565b9050919050565b60008073__StateMachine__________________________6381e4d3e59091846000604051602001526040518363ffffffff167c01000000000000000000000000000000000000000000000000000000000281526004018083815260200182600019166000191681526020019250505060206040518083038186803b15156119c257600080fd5b6102c65a03f415156119d357600080fd5b505050604051805190509050919050565b6000806004016000838152602001908152602001600020549050919050565b60008060000160008360001916600019168152602001908152602001600020600001549050919050565b60008073__StateMachine__________________________63e35ed5139091846000604051602001526040518363ffffffff167c01000000000000000000000000000000000000000000000000000000000281526004018083815260200182600019166000191681526020019250505060206040518083038186803b1515611ab457600080fd5b6102c65a03f41515611ac557600080fd5b505050604051805190509050919050565b6000611aec8260006121c790919063ffffffff16565b9050919050565b6000806000611b108686866000612213909392919063ffffffff16565b80935081945082955050505093509350939050565b600080600060060173__DoublyLinkedList______________________630cf65c5d9091856000604051602001526040518363ffffffff167c01000000000000000000000000000000000000000000000000000000000281526004018083815260200182600019166000191681526020019250505060206040518083038186803b1515611bb157600080fd5b6102c65a03f41515611bc257600080fd5b5050506040518051905014159050919050565b6000611bed838360006124b99092919063ffffffff16565b905092915050565b6000826000016000836000191660001916815260200190815260200160002060000154905092915050565b60008060006001026000191684600c01546000191614151515611c4257600080fd5b60011515846002016000858152602001908152602001600020600080815260200190815260200160002060006001815260200190815260200160002060009054906101000a900460ff1615151415611e3c57611c9d8461250c565b905060018460000160008360001916600019168152602001908152602001600020600001819055508360060173__DoublyLinkedList______________________63582f30b49091836000604051602001526040518363ffffffff167c01000000000000000000000000000000000000000000000000000000000281526004018083815260200182600019166000191681526020019250505060206040518083038186803b1515611d4d57600080fd5b6102c65a03f41515611d5e57600080fd5b505050604051805190501515611d7357600080fd5b8360030160006001815260200190815260200160002073__DoublyLinkedList______________________63582f30b49091836000604051602001526040518363ffffffff167c01000000000000000000000000000000000000000000000000000000000281526004018083815260200182600019166000191681526020019250505060206040518083038186803b1515611e0d57600080fd5b6102c65a03f41515611e1e57600080fd5b505050604051805190501515611e3357600080fd5b60019150611e48565b60009150600060010290505b9250929050565b6000806001026000191682600c015460001916141515611e6e57600080fd5b3073ffffffffffffffffffffffffffffffffffffffff1660010282600c01816000191690555060019050919050565b6000818460040160008581526020019081526020016000208160001916905550600190509392505050565b6000611edd83611ed88585611bf5565b61201a565b905092915050565b600080821415611f17577f6e6f6e65000000000000000000000000000000000000000000000000000000009050611f30565b8260050160008381526020019081526020016000205490505b92915050565b6000600115158560020160008681526020019081526020016000206000858152602001908152602001600020600084815260200190815260200160002060009054906101000a900460ff1615151415611fe25760008560020160008681526020019081526020016000206000858152602001908152602001600020600084815260200190815260200160002060006101000a81548160ff02191690831515021790555060019050611fe7565b600090505b949350505050565b6000818460050160008581526020019081526020016000208160001916905550600190509392505050565b60008082141561204c577f6e6f6e65000000000000000000000000000000000000000000000000000000009050612065565b8260040160008381526020019081526020016000205490505b92915050565b60008015158560020160008681526020019081526020016000206000858152602001908152602001600020600084815260200190815260200160002060009054906101000a900460ff16151514156121165760018560020160008681526020019081526020016000206000858152602001908152602001600020600084815260200190815260200160002060006101000a81548160ff0219169083151502179055506001905061211b565b600090505b949350505050565b6000808360010160008473ffffffffffffffffffffffffffffffffffffffff1673ffffffffffffffffffffffffffffffffffffffff16815260200190815260200160002054141561217757600090506121c1565b8260010160008373ffffffffffffffffffffffffffffffffffffffff1673ffffffffffffffffffffffffffffffffffffffff16815260200190815260200160002060009055600190505b92915050565b60008260010160008373ffffffffffffffffffffffffffffffffffffffff1673ffffffffffffffffffffffffffffffffffffffff16815260200190815260200160002054905092915050565b6000806000806000886000016000886000191660001916815260200190815260200160002060000154935083925060009450600115158960020160008081526020019081526020016000206000868152602001908152602001600020600088815260200190815260200160002060009054906101000a900460ff161515141561229b57600097505b600115158960020160008a81526020019081526020016000206000868152602001908152602001600020600088815260200190815260200160002060009054906101000a900460ff16151514156124ad578589600001600089600019166000191681526020019081526020016000206000018190555088600301600087815260200190815260200160002073__DoublyLinkedList______________________63582f30b49091896000604051602001526040518363ffffffff167c01000000000000000000000000000000000000000000000000000000000281526004018083815260200182600019166000191681526020019250505060206040518083038186803b15156123aa57600080fd5b6102c65a03f415156123bb57600080fd5b50505060405180519050915088600301600085815260200190815260200160002073__DoublyLinkedList______________________6352c6bbf49091896000604051602001526040518363ffffffff167c01000000000000000000000000000000000000000000000000000000000281526004018083815260200182600019166000191681526020019250505060206040518083038186803b151561246057600080fd5b6102c65a03f4151561247157600080fd5b50505060405180519050905088600001600088600019166000191681526020019081526020016000206000015492508180156124aa5750805b94505b50509450945094915050565b6000818460010160008573ffffffffffffffffffffffffffffffffffffffff1673ffffffffffffffffffffffffffffffffffffffff16815260200190815260200160002081905550600190509392505050565b6000806001026000191682600c0154600019161415151561252c57600080fd5b81600c01544260405180836000191660001916815260200182815260200192505050604051809103902082600c01816000191690555081600c01549050919050565b508054600082556003029060005260206000209081019061258f9190612592565b50565b6125c691905b808211156125c2576000808201600090556001820160009055600282016000905550600301612598565b5090565b905600a165627a7a72305820bcff8b6a49eeb6537785dda9fcaeda8491286c231d0cb949b084197f49faf8410029",
  "source": "pragma solidity ^0.4.19;\n\nimport '../lib/StateMachine.sol';\nimport \"@digix/solidity-collections/contracts/lib/DoublyLinkedList.sol\";\n\ncontract TestStateMachine {\n  using DoublyLinkedList for DoublyLinkedList.Bytes;\n  using StateMachine for StateMachine.System;\n  StateMachine.System testSystem;\n\n  // in this system there are:\n  //     - 1 address, with role 50, which is granted access for 0->1 and 100->110\n  //     - 2 states: 100 and 110\n  //     - 2 items that is currently in state 100\n  //     -\n  function setup_system_for_testing () public {\n    delete testSystem;\n    testSystem.init();\n\n    testSystem.state_ids_to_name[100] = 'name_of_state_id_100';\n    testSystem.state_ids_to_name[110] = 'name_of_state_id_110';\n    testSystem.role_ids_to_name[50] = 'name_of_role_id_50';\n    address testAddress = 0xe76aC07465f353FF8De7C8450C39E936c85FA283;\n    testSystem.to_role[testAddress] = 50;\n    testSystem.access_control[50][0][1] = true;\n    testSystem.access_control[50][100][110] = true;\n    testSystem.lists_by_state[100].append('test_item_name');\n    testSystem.lists_by_state[100].append('test_item_name_2');\n    testSystem.global_list.append('test_item_name');\n    testSystem.global_list.append('test_item_name_2');\n\n    testSystem.items['test_item_name'] = StateMachine.Item(100);\n    testSystem.items['test_item_name_2'] = StateMachine.Item(100);\n\n  }\n\n  function test_mock_get_access(uint256 _by_role, uint256 _from_state, uint256 _to_state)\n           public\n           constant\n           returns (bool _access)\n  {\n    _access = testSystem.access_control[_by_role][_from_state][_to_state];\n  }\n\n  function test_mock_get_lists_by_states_latest_item (uint256 _state_id)\n           public\n           constant\n           returns (bytes32 _item)\n  {\n    uint256 lists_by_states1_length = testSystem.lists_by_state[_state_id].data.collection.length;\n    _item = testSystem.lists_by_state[_state_id].get(lists_by_states1_length);\n  }\n\n  function test_mock_check_item_exists_in_list_by_states (uint256 _state_id, bytes32 _item)\n           public\n           constant\n           returns (bool _exist)\n  {\n    _exist = testSystem.lists_by_state[_state_id].find(_item) != 0;\n  }\n\n  function test_mock_check_list_by_states_length (uint256 _state_id)\n           public\n           constant\n           returns (uint256 _length)\n  {\n    _length = testSystem.lists_by_state[_state_id].data.collection.length;\n  }\n\n  function test_mock_check_item_exists_in_global_list (bytes32 _item)\n           public\n           constant\n           returns (bool _exist)\n  {\n    _exist = testSystem.global_list.find(_item) != 0;\n  }\n\n  function test_mock_get_item_state(bytes32 _item)\n           public\n           constant\n           returns (uint256 _state)\n  {\n    _state = testSystem.items[_item].state;\n  }\n\n  function test_mock_get_state_name(uint256 _state_id)\n           public\n           constant\n           returns (bytes32 _state_name)\n  {\n    _state_name = testSystem.state_ids_to_name[_state_id];\n  }\n\n  function test_mock_get_role_name(uint256 _role_id)\n           public\n           constant\n           returns (bytes32 _role_name)\n  {\n    _role_name = testSystem.role_ids_to_name[_role_id];\n  }\n\n  // From here will be the wrapper function to test the StateMachine's methods\n\n  function test_set_state_name(uint256 _state_id, bytes32 _state_name)\n           public\n           returns (bool _success)\n  {\n    _success = testSystem.set_state_name(_state_id, _state_name);\n  }\n\n  function test_get_state_name(uint256 _state_id)\n           public\n           constant\n           returns (bytes32 _state_name)\n  {\n    _state_name = testSystem.get_state_name(_state_id);\n  }\n\n  function test_get_item_state_id(bytes32 _item)\n           public\n           constant\n           returns (uint256 _state_id)\n  {\n    _state_id = testSystem.get_item_state_id(_item);\n  }\n\n  function test_get_item_state_name(bytes32 _item)\n           public\n           constant\n           returns (bytes32 _state_name)\n  {\n    _state_name = testSystem.get_item_state_name(_item);\n  }\n\n  function test_set_role_name(uint256 _role_id, bytes32 _role_name)\n           public\n           returns (bool _success)\n  {\n    _success = testSystem.set_role_name(_role_id, _role_name);\n  }\n\n  function test_get_role_name(uint256 _role_id)\n           public\n           constant\n           returns (bytes32 _role_name)\n  {\n    _role_name = testSystem.get_role_name(_role_id);\n  }\n\n  function test_get_entity_role_id(address _entity)\n           public\n           constant\n           returns (uint256 _role_id)\n  {\n    _role_id = testSystem.get_entity_role_id(_entity);\n  }\n\n  function test_set_role(address _entity, uint256 _role_id)\n           public\n           returns (bool _success)\n  {\n    _success = testSystem.set_role(_entity, _role_id);\n  }\n\n  function test_unset_role(address _entity)\n           public\n           returns (bool _success)\n  {\n    _success = testSystem.unset_role(_entity);\n  }\n\n  function test_grant_access(uint256 _by_role, uint256 _from_state, uint256 _to_state)\n           public\n           returns (bool _success)\n  {\n    _success = testSystem.grant_access(_by_role, _from_state, _to_state);\n  }\n\n  function test_revoke_access(uint256 _by_role, uint256 _from_state, uint256 _to_state)\n           public\n           returns (bool _success)\n  {\n    _success = testSystem.revoke_access(_by_role, _from_state, _to_state);\n  }\n\n  function test_create_item(uint256 _by_role)\n           public\n           returns (bool _success, bytes32 _item)\n  {\n    (_success, _item ) = testSystem.create_item(_by_role);\n  }\n\n  function test_change_item_state(uint256 _by_role, bytes32 _item, uint256 _to_state)\n           public\n           returns (bool _success, uint256 _from_state, uint256 _new_state)\n  {\n    (_success, _from_state, _new_state) = testSystem.change_item_state(_by_role, _item, _to_state);\n  }\n\n  function test_total_in_state(uint256 _state_id)\n           public\n           constant\n           returns (uint256 _total_count)\n  {\n    _total_count = testSystem.total_in_state(_state_id);\n  }\n\n  function test_total()\n           public\n           constant\n           returns (uint256 _global_count)\n  {\n    _global_count = testSystem.total();\n  }\n\n  function test_get_first_in_global()\n           public\n           constant\n           returns (bytes32 _item)\n  {\n    _item = testSystem.get_first_in_global();\n  }\n\n  function test_get_last_in_global()\n           public\n           constant\n           returns (bytes32 _item)\n  {\n    _item = testSystem.get_last_in_global();\n  }\n\n  function test_get_next_from_in_global(bytes32 _input_item)\n           public\n           constant\n           returns (bytes32 _item)\n  {\n    _item = testSystem.get_next_from_in_global(_input_item);\n  }\n\n  function test_get_previous_from_in_global(bytes32 _input_item)\n           public\n           constant\n           returns (bytes32 _item)\n  {\n    _item = testSystem.get_previous_from_in_global(_input_item);\n  }\n\n\n  function test_get_first_in_state(uint256 _state_id)\n           public\n           constant\n           returns (bytes32 _item)\n  {\n    _item = testSystem.get_first_in_state(_state_id);\n  }\n\n  function test_get_last_in_state(uint256 _state_id)\n           public\n           constant\n           returns (bytes32 _item)\n  {\n    _item = testSystem.get_last_in_state(_state_id);\n  }\n\n  function test_get_next_from_in_state(uint256 _state_id, bytes32 _input_item)\n           public\n           constant\n           returns (bytes32 _item)\n  {\n    _item = testSystem.get_next_from_in_state(_state_id, _input_item);\n  }\n\n  function test_get_previous_from_in_state(uint256 _state_id, bytes32 _input_item)\n           public\n           constant\n           returns (bytes32 _item)\n  {\n    _item = testSystem.get_previous_from_in_state(_state_id, _input_item);\n  }\n\n  function test_check_role_access(uint256 _role_id, uint256 _from_state, uint256 _to_state)\n           public\n           constant\n           returns (bool _yes)\n  {\n    _yes = testSystem.check_role_access(_role_id, _from_state, _to_state);\n  }\n}\n",
  "sourcePath": "/home/rohit/Develop/solidity-statemachine-library/contracts/test/TestStateMachine.sol",
  "compiler": {
    "name": "solc",
    "version": "0.4.19+commit.c4cbbb05.Emscripten.clang"
  },
  "schemaVersion": "1.0.1",
  "updatedAt": "2018-03-07T04:28:37.743Z"
}